{
  "address": "0xe7f1725E7734CE288F8367e1Bb143E90bb3F0512",
  "abi": [
    {
      "inputs": [
        {
          "internalType": "address",
          "name": "dataFeedAddr",
          "type": "address"
        }
      ],
      "stateMutability": "nonpayable",
      "type": "constructor"
    },
    {
      "stateMutability": "payable",
      "type": "fallback"
    },
    {
      "inputs": [],
      "name": "fund",
      "outputs": [],
      "stateMutability": "payable",
      "type": "function"
    },
    {
      "inputs": [],
      "name": "getAgt",
      "outputs": [
        {
          "internalType": "contract AggregatorV3Interface",
          "name": "",
          "type": "address"
        }
      ],
      "stateMutability": "view",
      "type": "function"
    },
    {
      "inputs": [],
      "name": "getDecimals",
      "outputs": [
        {
          "internalType": "uint8",
          "name": "",
          "type": "uint8"
        }
      ],
      "stateMutability": "view",
      "type": "function"
    },
    {
      "inputs": [
        {
          "internalType": "address",
          "name": "userAddr",
          "type": "address"
        }
      ],
      "name": "getFund",
      "outputs": [
        {
          "internalType": "uint256",
          "name": "",
          "type": "uint256"
        }
      ],
      "stateMutability": "view",
      "type": "function"
    },
    {
      "inputs": [
        {
          "internalType": "uint256",
          "name": "index",
          "type": "uint256"
        }
      ],
      "name": "getFunder",
      "outputs": [
        {
          "internalType": "address",
          "name": "",
          "type": "address"
        }
      ],
      "stateMutability": "view",
      "type": "function"
    },
    {
      "inputs": [],
      "name": "getOwner",
      "outputs": [
        {
          "internalType": "address",
          "name": "",
          "type": "address"
        }
      ],
      "stateMutability": "view",
      "type": "function"
    },
    {
      "inputs": [],
      "name": "getPrice",
      "outputs": [
        {
          "internalType": "uint256",
          "name": "",
          "type": "uint256"
        }
      ],
      "stateMutability": "view",
      "type": "function"
    },
    {
      "inputs": [
        {
          "internalType": "uint256",
          "name": "amount",
          "type": "uint256"
        }
      ],
      "name": "getUsdWithEth",
      "outputs": [
        {
          "internalType": "uint256",
          "name": "",
          "type": "uint256"
        }
      ],
      "stateMutability": "view",
      "type": "function"
    },
    {
      "inputs": [],
      "name": "getVersion",
      "outputs": [
        {
          "internalType": "uint256",
          "name": "",
          "type": "uint256"
        }
      ],
      "stateMutability": "view",
      "type": "function"
    },
    {
      "inputs": [],
      "name": "withdraw",
      "outputs": [],
      "stateMutability": "nonpayable",
      "type": "function"
    },
    {
      "inputs": [],
      "name": "withdrawAll",
      "outputs": [],
      "stateMutability": "nonpayable",
      "type": "function"
    },
    {
      "stateMutability": "payable",
      "type": "receive"
    }
  ],
  "transactionHash": "0x7ed180be2d70704e77066f3bc4efaa5a882d8a755aa9b3e2e43a0a3b19174875",
  "args": [
    "0x5FbDB2315678afecb367f032d93F642f64180aa3"
  ],
  "numDeployments": 1,
  "solcInputHash": "43ca730d3bac6685624ebb3f10e06223",
  "bytecode": "0x60a06040523480156200001157600080fd5b506040516200152638038062001526833981810160405281019062000037919062000120565b3373ffffffffffffffffffffffffffffffffffffffff1660808173ffffffffffffffffffffffffffffffffffffffff1660601b8152505080600260006101000a81548173ffffffffffffffffffffffffffffffffffffffff021916908373ffffffffffffffffffffffffffffffffffffffff1602179055505062000152565b600080fd5b600073ffffffffffffffffffffffffffffffffffffffff82169050919050565b6000620000e882620000bb565b9050919050565b620000fa81620000db565b81146200010657600080fd5b50565b6000815190506200011a81620000ef565b92915050565b600060208284031215620001395762000138620000b6565b5b6000620001498482850162000109565b91505092915050565b60805160601c6113ae6200017860003960008181610585015261083a01526113ae6000f3fe6080604052600436106100a05760003560e01c806398d5fdca1161006457806398d5fdca1461017a578063b42c1d40146101a5578063b60d4288146101e2578063d7b4750c146101ec578063f0141d8414610229578063f17d689c14610254576100af565b80630d8e6e2c146100b95780633ccfd60b146100e4578063853828b6146100fb578063893d20e81461011257806393fc0d7a1461013d576100af565b366100af576100ad61027f565b005b6100b761027f565b005b3480156100c557600080fd5b506100ce61038c565b6040516100db9190610b73565b60405180910390f35b3480156100f057600080fd5b506100f9610433565b005b34801561010757600080fd5b5061011061056c565b005b34801561011e57600080fd5b50610127610836565b6040516101349190610bcf565b60405180910390f35b34801561014957600080fd5b50610164600480360381019061015f9190610c1b565b61085e565b6040516101719190610b73565b60405180910390f35b34801561018657600080fd5b5061018f610892565b60405161019c9190610b73565b60405180910390f35b3480156101b157600080fd5b506101cc60048036038101906101c79190610c74565b610952565b6040516101d99190610b73565b60405180910390f35b6101ea61027f565b005b3480156101f857600080fd5b50610213600480360381019061020e9190610c1b565b61099b565b6040516102209190610bcf565b60405180910390f35b34801561023557600080fd5b5061023e6109e2565b60405161024b9190610cbd565b60405180910390f35b34801561026057600080fd5b50610269610a89565b6040516102769190610d37565b60405180910390f35b670de0b6b3a76400006102913461085e565b116102d1576040517f08c379a00000000000000000000000000000000000000000000000000000000081526004016102c890610daf565b60405180910390fd5b6000339080600181540180825580915050600190039060005260206000200160009091909190916101000a81548173ffffffffffffffffffffffffffffffffffffffff021916908373ffffffffffffffffffffffffffffffffffffffff16021790555034600160003373ffffffffffffffffffffffffffffffffffffffff1673ffffffffffffffffffffffffffffffffffffffff16815260200190815260200160002060008282546103839190610dfe565b92505081905550565b6000600260009054906101000a900473ffffffffffffffffffffffffffffffffffffffff1673ffffffffffffffffffffffffffffffffffffffff166354fd4d506040518163ffffffff1660e01b815260040160206040518083038186803b1580156103f657600080fd5b505afa15801561040a573d6000803e3d6000fd5b505050506040513d601f19601f8201168201806040525081019061042e9190610e69565b905090565b6000600160003373ffffffffffffffffffffffffffffffffffffffff1673ffffffffffffffffffffffffffffffffffffffff1681526020019081526020016000205490506000600160003373ffffffffffffffffffffffffffffffffffffffff1673ffffffffffffffffffffffffffffffffffffffff1681526020019081526020016000208190555060003373ffffffffffffffffffffffffffffffffffffffff16826040516104e290610ec7565b60006040518083038185875af1925050503d806000811461051f576040519150601f19603f3d011682016040523d82523d6000602084013e610524565b606091505b5050905080610568576040517f08c379a000000000000000000000000000000000000000000000000000000000815260040161055f90610f28565b60405180910390fd5b5050565b3373ffffffffffffffffffffffffffffffffffffffff167f000000000000000000000000000000000000000000000000000000000000000073ffffffffffffffffffffffffffffffffffffffff16146105fa576040517f08c379a00000000000000000000000000000000000000000000000000000000081526004016105f190610f94565b60405180910390fd5b60008080548060200260200160405190810160405280929190818152602001828054801561067d57602002820191906000526020600020905b8160009054906101000a900473ffffffffffffffffffffffffffffffffffffffff1673ffffffffffffffffffffffffffffffffffffffff1681526020019060010190808311610633575b5050505050905060005b8151811015610725576000600160008084815481106106a9576106a8610fb4565b5b9060005260206000200160009054906101000a900473ffffffffffffffffffffffffffffffffffffffff1673ffffffffffffffffffffffffffffffffffffffff1673ffffffffffffffffffffffffffffffffffffffff16815260200190815260200160002081905550808061071d90610fe3565b915050610687565b50600067ffffffffffffffff8111156107415761074061102c565b5b60405190808252806020026020018201604052801561076f5781602001602082028036833780820191505090505b5060009080519060200190610785929190610ab3565b5060003373ffffffffffffffffffffffffffffffffffffffff16476040516107ac90610ec7565b60006040518083038185875af1925050503d80600081146107e9576040519150601f19603f3d011682016040523d82523d6000602084013e6107ee565b606091505b5050905080610832576040517f08c379a000000000000000000000000000000000000000000000000000000000815260040161082990610f28565b60405180910390fd5b5050565b60007f0000000000000000000000000000000000000000000000000000000000000000905090565b600080610869610892565b9050670de0b6b3a76400008184610880919061105b565b61088a91906110e4565b915050919050565b600080600260009054906101000a900473ffffffffffffffffffffffffffffffffffffffff1673ffffffffffffffffffffffffffffffffffffffff1663feaf968c6040518163ffffffff1660e01b815260040160a06040518083038186803b1580156108fd57600080fd5b505afa158015610911573d6000803e3d6000fd5b505050506040513d601f19601f82011682018060405250810190610935919061118d565b5050509150506402540be4008161094c9190611208565b91505090565b6000600160008373ffffffffffffffffffffffffffffffffffffffff1673ffffffffffffffffffffffffffffffffffffffff168152602001908152602001600020549050919050565b60008082815481106109b0576109af610fb4565b5b9060005260206000200160009054906101000a900473ffffffffffffffffffffffffffffffffffffffff169050919050565b6000600260009054906101000a900473ffffffffffffffffffffffffffffffffffffffff1673ffffffffffffffffffffffffffffffffffffffff1663313ce5676040518163ffffffff1660e01b815260040160206040518083038186803b158015610a4c57600080fd5b505afa158015610a60573d6000803e3d6000fd5b505050506040513d601f19601f82011682018060405250810190610a84919061134b565b905090565b6000600260009054906101000a900473ffffffffffffffffffffffffffffffffffffffff16905090565b828054828255906000526020600020908101928215610b2c579160200282015b82811115610b2b5782518260006101000a81548173ffffffffffffffffffffffffffffffffffffffff021916908373ffffffffffffffffffffffffffffffffffffffff16021790555091602001919060010190610ad3565b5b509050610b399190610b3d565b5090565b5b80821115610b56576000816000905550600101610b3e565b5090565b6000819050919050565b610b6d81610b5a565b82525050565b6000602082019050610b886000830184610b64565b92915050565b600073ffffffffffffffffffffffffffffffffffffffff82169050919050565b6000610bb982610b8e565b9050919050565b610bc981610bae565b82525050565b6000602082019050610be46000830184610bc0565b92915050565b600080fd5b610bf881610b5a565b8114610c0357600080fd5b50565b600081359050610c1581610bef565b92915050565b600060208284031215610c3157610c30610bea565b5b6000610c3f84828501610c06565b91505092915050565b610c5181610bae565b8114610c5c57600080fd5b50565b600081359050610c6e81610c48565b92915050565b600060208284031215610c8a57610c89610bea565b5b6000610c9884828501610c5f565b91505092915050565b600060ff82169050919050565b610cb781610ca1565b82525050565b6000602082019050610cd26000830184610cae565b92915050565b6000819050919050565b6000610cfd610cf8610cf384610b8e565b610cd8565b610b8e565b9050919050565b6000610d0f82610ce2565b9050919050565b6000610d2182610d04565b9050919050565b610d3181610d16565b82525050565b6000602082019050610d4c6000830184610d28565b92915050565b600082825260208201905092915050565b7f49742773206e6f7420656e6f7567680000000000000000000000000000000000600082015250565b6000610d99600f83610d52565b9150610da482610d63565b602082019050919050565b60006020820190508181036000830152610dc881610d8c565b9050919050565b7f4e487b7100000000000000000000000000000000000000000000000000000000600052601160045260246000fd5b6000610e0982610b5a565b9150610e1483610b5a565b9250827fffffffffffffffffffffffffffffffffffffffffffffffffffffffffffffffff03821115610e4957610e48610dcf565b5b828201905092915050565b600081519050610e6381610bef565b92915050565b600060208284031215610e7f57610e7e610bea565b5b6000610e8d84828501610e54565b91505092915050565b600081905092915050565b50565b6000610eb1600083610e96565b9150610ebc82610ea1565b600082019050919050565b6000610ed282610ea4565b9150819050919050565b7f5769746864726177206661696c65642100000000000000000000000000000000600082015250565b6000610f12601083610d52565b9150610f1d82610edc565b602082019050919050565b60006020820190508181036000830152610f4181610f05565b9050919050565b7f49742773206f6e6c7920666f72206f776e657221000000000000000000000000600082015250565b6000610f7e601483610d52565b9150610f8982610f48565b602082019050919050565b60006020820190508181036000830152610fad81610f71565b9050919050565b7f4e487b7100000000000000000000000000000000000000000000000000000000600052603260045260246000fd5b6000610fee82610b5a565b91507fffffffffffffffffffffffffffffffffffffffffffffffffffffffffffffffff82141561102157611020610dcf565b5b600182019050919050565b7f4e487b7100000000000000000000000000000000000000000000000000000000600052604160045260246000fd5b600061106682610b5a565b915061107183610b5a565b9250817fffffffffffffffffffffffffffffffffffffffffffffffffffffffffffffffff04831182151516156110aa576110a9610dcf565b5b828202905092915050565b7f4e487b7100000000000000000000000000000000000000000000000000000000600052601260045260246000fd5b60006110ef82610b5a565b91506110fa83610b5a565b92508261110a576111096110b5565b5b828204905092915050565b600069ffffffffffffffffffff82169050919050565b61113481611115565b811461113f57600080fd5b50565b6000815190506111518161112b565b92915050565b6000819050919050565b61116a81611157565b811461117557600080fd5b50565b60008151905061118781611161565b92915050565b600080600080600060a086880312156111a9576111a8610bea565b5b60006111b788828901611142565b95505060206111c888828901611178565b94505060406111d988828901610e54565b93505060606111ea88828901610e54565b92505060806111fb88828901611142565b9150509295509295909350565b600061121382611157565b915061121e83611157565b9250827f7fffffffffffffffffffffffffffffffffffffffffffffffffffffffffffffff048211600084136000841316161561125d5761125c610dcf565b5b817f8000000000000000000000000000000000000000000000000000000000000000058312600084126000841316161561129a57611299610dcf565b5b827f800000000000000000000000000000000000000000000000000000000000000005821260008413600084121616156112d7576112d6610dcf565b5b827f7fffffffffffffffffffffffffffffffffffffffffffffffffffffffffffffff058212600084126000841216161561131457611313610dcf565b5b828202905092915050565b61132881610ca1565b811461133357600080fd5b50565b6000815190506113458161131f565b92915050565b60006020828403121561136157611360610bea565b5b600061136f84828501611336565b9150509291505056fea26469706673582212206aa689a5eca1400420c6ef1aaa87f8a6b875d4b2c65b1d4c930e09f669f5220064736f6c63430008080033",
  "devdoc": {
    "kind": "dev",
    "methods": {},
    "version": 1
  },
  "userdoc": {
    "kind": "user",
    "methods": {},
    "version": 1
  },
  "storageLayout": {
    "storage": [
      {
        "astId": 57,
        "contract": "contracts/FundMe.sol:FundMe",
        "label": "funders",
        "offset": 0,
        "slot": "0",
        "type": "t_array(t_address)dyn_storage"
      },
      {
        "astId": 61,
        "contract": "contracts/FundMe.sol:FundMe",
        "label": "funds",
        "offset": 0,
        "slot": "1",
        "type": "t_mapping(t_address,t_uint256)"
      },
      {
        "astId": 66,
        "contract": "contracts/FundMe.sol:FundMe",
        "label": "agt",
        "offset": 0,
        "slot": "2",
        "type": "t_contract(AggregatorV3Interface)45"
      }
    ],
    "types": {
      "t_address": {
        "encoding": "inplace",
        "label": "address",
        "numberOfBytes": "20"
      },
      "t_array(t_address)dyn_storage": {
        "base": "t_address",
        "encoding": "dynamic_array",
        "label": "address[]",
        "numberOfBytes": "32"
      },
      "t_contract(AggregatorV3Interface)45": {
        "encoding": "inplace",
        "label": "contract AggregatorV3Interface",
        "numberOfBytes": "20"
      },
      "t_mapping(t_address,t_uint256)": {
        "encoding": "mapping",
        "key": "t_address",
        "label": "mapping(address => uint256)",
        "numberOfBytes": "32",
        "value": "t_uint256"
      },
      "t_uint256": {
        "encoding": "inplace",
        "label": "uint256",
        "numberOfBytes": "32"
      }
    }
  }
}